:020000040000FA
:060000009DEF00F012006C
:020006000000F8
:08000800060EF66E000EF76E05
:10001000000EF86E0E010900F550056F0900F5504D
:10002000066F03E1056701D03DD00900F550006F70
:100030000900F550016F0900F550026F0900090031
:10004000F550E96E0900F550EA6E09000900090053
:10005000F550036F0900F550046F09000900F6CF51
:1000600007FEF7CF08FEF8CF09FE00CEF6FF01CE5F
:10007000F7FF02CEF8FF0E01035302E1045307E03D
:100080000900F550EE6E0307F8E20407F9D707CE32
:10009000F6FF08CEF7FF09CEF8FF0E010507000EA8
:0600A000065BBFD7120051
:0A00A600D9CFE6FFE1CFD9FF020E2B
:1000B000E126DE6ADD6ADECF00F0DDCF01F0FD0E65
:1000C000DBCF02F0FE0EDBCF03F00250005C0350EA
:1000D000015806E20000DF2A010E01E3DB2AEBD71C
:1000E000020EE15C02E2E16AE552E16EE552E7CF21
:1000F000D9FF1200926A80688068E80EE66E030EEF
:10010000E66ED1DFE552E552806A640EE66EE66A7D
:0A011000CADFE552E552F0D71200F5
:06011A00410EF36E00EE41
:1001200000F00E0E01D81200EA6002D0EE6AFCD791
:0A013000F350E9601200EE6AFCD7FC
:06013A001DEE00F02DEEA9
:1001400000F0F86A059C04EC00F0ABEC00F07AECEF
:0601500000F0FBD71200D5
:02015600120095
:00000001FF
